:020000040800F2
:100000004007002089010008C9010008CB01000851
:10001000CF010008D3010008D7010008000000004C
:10002000000000000000000000000000DB010008EC
:10003000DD01000800000000DF010008E101000808
:10004000A3010008A3010008A3010008A301000800
:10005000A3010008A3010008A3010008A3010008F0
:10006000A3010008A3010008A3010008A3010008E0
:10007000A3010008A3010008A3010008A3010008D0
:10008000A3010008A3010008A1020008A3010008C1
:10009000A3020008A3010008A30100089F020008B2
:1000A000A3010008A3010008A3010008A3010008A0
:1000B0000D020008A301000885020008A301000842
:1000C000A3010008A3010008A3010008A301000880
:1000D000A3010008E3010008E5010008A3010008EE
:1000E000A3010008A3010008A301000800F002F822
:1000F00000F03AF80AA090E8000C82448344AAF188
:100100000107DA4501D100F02FF8AFF2090EBAE885
:100110000F0013F0010F18BFFB1A43F0010318473B
:10012000145D0000345D0000103A24BF78C878C127
:10013000FAD8520724BF30C830C144BF04680C60ED
:10014000704700000023002400250026103A28BF35
:1001500078C1FBD8520728BF30C148BF0B60704739
:100160001FB51FBD10B510BD04F091FE1146FFF77D
:10017000F7FF00F0BFF904F0AFFE03B4FFF7F2FFA2
:1001800003BC04F0B7FE0000094880470948004757
:10019000FEE7FEE7FEE7FEE7FEE7FEE7FEE7FEE737
:1001A000FEE7FEE704480549054A064B7047000094
:1001B000C7030008ED0000084001002040070020B0
:1001C0004003002040030020704700BFFEE700BF4F
:1001D000FEE700BFFEE700BFFEE7704770477047CD
:1001E0007047704710B540F22551334804F008FEBF
:1001F00058B1314804F084FDC4B240F225512E4874
:1002000004F028FE204600F0F4FB10BD10B50121DB
:10021000880704F020FC002833D00121880704F06F
:100220002BFC26480068401C2449086024480078BC
:10023000401C23490870084600780A2804DB002087
:10024000087001201F4908701F480078401C1E4993
:10025000087008460078642804DB0020087001203C
:100260001A4908701A480068401C19490860084675
:100270000068B0F5FA7F04D300200860012015491A
:10028000087010BD10B50121134804F0E4FB28B13B
:100290000121114804F0F0FB01F068F810BD70472F
:1002A000704710B50D4A00210D4802F0C0FD012035
:1002B0000C49087010BD0000004400403C000020C4
:1002C00040000020410000204200002043000020A8
:1002D000440000204800002000080040C00000202A
:1002E000006400406C0000200CB5002001900090DC
:1002F0006C48006840F480306A49086000BF694873
:10030000006800F4003000900198401C01900098B3
:1003100018B90198B0F5A06FF1D16248006800F4F7
:10032000003010B10120009001E000200090009802
:10033000012843D15C48006840F010005A49086029
:100340000846006820F0030008600846006840F096
:1003500002000860534840685249486008464068B7
:1003600048600846406840F480604860084640683D
:1003700020F47C1048600846406840F4E81048606B
:100380000846006840F08070086000BF454800687B
:1003900000F000700028F9D04248406820F00300C7
:1003A000404948600846406840F00200486000BF8D
:1003B0003C48406800F00C000828F9D10CBD10B58D
:1003C000FFF792FF10BD10B53648006840F00100FD
:1003D000344908600846406834490840314948605B
:1003E00008460068324908402E49086008460068FF
:1003F00020F4802008600846406820F4FE00486031
:100400004FF41F008860FFF7DAFF4FF000602949C2
:10041000086010BD10B5002100200022214B5B6850
:1004200003F00C0121B1042906D0082928D107E0E6
:10043000214B224C236027E01F4B204C236023E0FC
:10044000184B5B6803F47010164B5B6803F4803242
:10045000022303EB904022B9194B4343174C23600E
:100460000DE0104B5B6803F4003323B1144B43439E
:10047000124C236003E0104B4343104C236003E015
:100480000D4B0E4C236000BF00BF064B5B68C3F3EF
:1004900003130C4CE15C094B1B68CB40074C2360F9
:1004A00010BD000000100240002002400000FFF8D4
:1004B000FFFFF6FE08ED00E000127A0000000020C9
:1004C00000093D000400002010B500F010FC00F011
:1004D00073FC642000F006FA00F04EFC4FF47A70D2
:1004E00000F000FA00F025FCDC494FF4487001F000
:1004F00096FA10BD08B54FF4A06001F07BFF00F044
:10050000C3F900F0F8F900F027FA01F0B5F800F0AF
:10051000B8FA00F03BFC00F071FC00F0F9FF00F0CD
:10052000A3FD01F0C3FAFFF7CFFF95E1CC480078B7
:10053000022803D0CA48007800283DD1012000F0ED
:10054000D1F900F02AFE00F03EFC00F0B3FC00F010
:10055000EEFC01F0E3F901F0B7F901F0A0F901F0C8
:1005600004F9C0480078012804D10020BD49087072
:1005700001F051FBBC48007801280FD10020BA4996
:100580000870BA4800780090B9480368B948027802
:10059000B9480178B248007800F0E1FAB74800782D
:1005A0000128C2D10020B5490870B548007801F093
:1005B00018F801F0ECF94FE1A9480078082833D188
:1005C000012000F08FF900F0E8FD00F0FCFB00F0E6
:1005D00071FC00F0ACFC01F0A1F901F075F901F03B
:1005E000C4F8A0480078012802D100209D49087075
:1005F0009D48007801280FD100209B4908709B4836
:10060000007800909A4803689A4802789A480178DE
:100610009348007800F0A3FA98480078012884D124
:1006200000209649087017E18D480078032830D1E2
:10063000012000F057F900F0C6FB00F03BFC00F091
:1006400076FC88480078012804D10020854908708C
:1006500001F0E1FA8448007801280FD10020824996
:1006600008708248007800908148036881480278C9
:10067000814801787A48007800F071FA7F48007864
:10068000012898D100207D49087014207D49086018
:10069000E2E073480078042834D1012000F022F908
:1006A00000F091FB00F006FC00F041FC01F02AF99B
:1006B00001F05BF86B480078012804D100206949FB
:1006C000087001F0A8FA6848007801280FD10020CE
:1006D000654908706548007800906548036865487A
:1006E0000278654801785E48007800F038FA63487F
:1006F0000078012897D100206049087014206149D2
:100700000860A9E056480078052834D1012000F09F
:10071000E9F800F058FB00F0CDFB00F008FC01F018
:10072000F1F801F022F84F480078012804D10020A8
:100730004C49087001F06FFA4B48007801280FD13E
:1007400000204949087049480078009048480368EB
:1007500048480278484801784148007800F0FFF99D
:1007600046480078012877D10020444908701420B9
:100770004449086070E03A480078062834D10120E6
:1007800000F0B0F800F01FFB00F094FB00F0CFFB8E
:1007900000F0EBFF01F0A8F832480078012804D1FE
:1007A00000203049087001F036FA2F4800780128FF
:1007B0000FD100202C4908702C48007800902C485C
:1007C00003682C4802782C4801782548007800F00E
:1007D000C6F92A48007801283ED100202749087030
:1007E00014202849086037E01D480078072833D1D5
:1007F000012000F077F800F0E6FA00F05BFB00F073
:1008000096FB00F0B2FF01F076F816480078012858
:1008100004D100201349087001F0FDF91248007856
:1008200001280FD10020104908701048007800906E
:100830000F4803680F4802780F480178084800788D
:1008400000F08DF90D480078012805D100200B49F2
:10085000087014200B49086068E60000270000209B
:10086000140000204100002043000020360000203A
:100870003000002016000020150000204800002055
:10088000690000204C0000201FB50121084603F03C
:1008900092F940F2E730ADF808004720ADF80400C7
:1008A0000020ADF80A00ADF8060001A94FF0804025
:1008B00003F0ACFA1C208DF8000000208DF8010038
:1008C0008DF8020001208DF80300684601F097FDC5
:1008D0000121880703F0F6FD01221146900703F07D
:1008E0000CFE1FBD00211A4A116000BF184909689B
:1008F0008142FBD370471FB50121042003F05BF94F
:1009000047F25E60ADF808004720ADF80400002013
:10091000ADF80A00ADF8060001A90E4803F076FA1A
:100920001E208DF8000003208DF801008DF80200D4
:1009300001208DF80300684601F061FD01210548A2
:1009400003F0C0FD01221146024803F0D6FD1FBD91
:100950003C0000200008004000B587B001210520C0
:1009600003F01CF90121480403F025F90420ADF837
:10097000180003208DF81A0018208DF81B0006A916
:10098000364802F04FFE0820ADF8180004208DF81C
:100990001B0006A9314802F045FE4FF4E1300290F9
:1009A0000020ADF80C00ADF80E00ADF81000ADF869
:1009B00014000C20ADF8120026208DF80400012050
:1009C0008DF805008DF806008DF8070001A801F0EC
:1009D00016FD012240F22551214804F02CF902A90C
:1009E0001F4804F090F801211D4804F018F907B0E1
:1009F00000BD10B504462146194804F07DF900BF3A
:100A00008021174804F0E6F90028F9D010BD70B530
:100A100004462512E6B22946114804F06DF900BFDC
:100A200080210F4804F0D6F90028F9D031460C484F
:100A300004F062F900BF8021094804F0CBF90028D6
:100A4000F9D070BD10B5044603E02078FFF7D1FF60
:100A5000641C20780028F8D110BD00000008014077
:100A60000044004010B50446012C04D1C103C14824
:100A700002F085FE04E04FF40041BE4802F081FE22
:100A800010BD08B50121082003F088F84FF480500C
:100A9000ADF8000003208DF8020010208DF803004F
:100AA0006946B44802F0BEFD4FF40050ADF80000B6
:100AB00003208DF8020010208DF803006946AD4830
:100AC00002F0B0FD4FF48040ADF8000003208DF837
:100AD000020010208DF803006946A64802F0A2FD2E
:100AE0004FF40040ADF8000003208DF80200102004
:100AF0008DF8030069469F4802F094FD0120FFF73E
:100B0000B1FF08BD10B50446012C04D1010399487A
:100B100002F035FE04E04FF48051964802F031FEB9
:100B200010BD10B50446012C04D14103914802F0D8
:100B300026FE04E04FF400518E4802F022FE10BD64
:100B400010B50446012C04D181038A4802F017FE37
:100B500004E04FF48041874802F013FE10BD2DE9F8
:100B6000F84F05460E46144699460A9F4FF0000A74
:100B7000D34600200090002D48D1012E02D14FF025
:100B8000010B12E0022E02D14FF0030B0DE0032EF9
:100B900002D14FF0070B08E0042E02D14FF00F0BEB
:100BA00003E0052E01D14FF01F0B012C02D10120D3
:100BB000009077E0022C02D10320009072E0032C19
:100BC00002D1072000906DE0042C02D10F2000908C
:100BD00068E0052C02D11F20009063E0062C02D1B2
:100BE0003F2000905EE0072C02D17F20009059E06A
:100BF000082C02D1FF20009054E0092C03D140F2D0
:100C0000FF1000904EE0002000904BE0082D19D11D
:100C100040F255100090012F02D14FF0010B41E03E
:100C2000022F02D14FF0030B3CE0032F02D14FF013
:100C3000070B37E0042F02D14FF00F0B32E04FF0DB
:100C4000000B2FE0032D0BD109F0400010B1012063
:100C5000009002E04FF48070009009F00F0B21E04B
:100C6000042D04D14FF0000B012000901AE0052D57
:100C700005D14FF0000B4FF48070009012E0062D6C
:100C800004D14FF0100B012000900BE0072D05D18F
:100C90004FF0100B4FF48070009003E04FF0000B0A
:100CA00000200090009840EA4B2A4FF00D0816E013
:100CB0000020FFF736FF0020FFF742FF2AFA08F076
:100CC00000F0010018B10120FFF71CFF02E0002036
:100CD000FFF718FF0120FFF733FFA8F10108B8F173
:100CE000000FE5DA0120FFF71CFFBDE8F88F70B5B3
:100CF000002543F6FF750D2415E00020FFF711FFD6
:100D00000020FFF71DFF25FA04F000F0010018B1E4
:100D10000120FFF7F7FE02E00020FFF7F3FE0120BD
:100D2000FFF70EFF641E002CE7DA0120FFF7F9FE43
:100D300070BD70B5002500BF0D2415E00020FFF741
:100D4000F0FE0020FFF7FCFE25FA04F000F00100A1
:100D500018B10120FFF7D6FE02E00020FFF7D2FE17
:100D60000120FFF7EDFE641E002CE7DA0120FFF7FB
:100D7000D8FE70BD000C014010B51D48007820B9A8
:100D80004FF480711B4802F0FCFC10BD08B5012136
:100D9000042002F003FF4FF48070ADF80000032040
:100DA0008DF8020010208DF803006946114802F00A
:100DB00039FCFFF7E1FF08BD10B54FF480710D4815
:100DC00002F0DDFC10BD10B50B48006878B1FFF7EC
:100DD000F3FF09480068401E07490860084600689C
:100DE000012804D1FFF7C8FF00200349086010BDA7
:100DF00050000020000801404C00002008B50121EF
:100E0000082002F0CBFE4FF48060ADF80000032014
:100E10008DF8020004208DF803006946504802F066
:100E200001FC4FF40060ADF8000003208DF80200D3
:100E300010208DF803006946494802F0F3FB4FF497
:100E40000061474802F09BFC8020ADF800000320C1
:100E50008DF8020010208DF803006946404802F02A
:100E6000E1FB80213E4802F08AFC08BD10B5FFF787
:100E70003EFFFFF7A1FF6420FFF734FDFFF77CFF83
:100E80006420FFF72FFDFFF797FF6420FFF72AFD8F
:100E9000FFF772FF4FF47A70FFF724FDFFF749FF69
:100EA00080212F4802F06DFC4FF400612C4802F0C5
:100EB00068FC10BD10B54FF48061294802F045FC74
:100EC0000446012C20D12748007802282ED026483D
:100ED000007808BB24484078F0B924480078D8B995
:100EE00022484078C0B922480078401C2049087048
:100EF000084600781E2819DD1E20087001201949B7
:100F00000870FFF7B3FF11E034B9164800780228E3
:100F100003D100201349087008E015480078002824
:100F200004DD13480078401E1149087010BD10B54B
:100F30000D48407830B10D48407818B100200D4977
:100F4000086004E00B480068401C0A490860094832
:100F500000680949884201D9FFF788FF10BD0000E9
:100F6000000C014014000020170000201F0000208A
:100F70005400002058000020E093040008B501212F
:100F80000C2002F00BFE1020ADF8000003208DF8BD
:100F9000020004208DF803006946FA4802F042FB83
:100FA0002020ADF8000003208DF8020004208DF809
:100FB00003006946F34802F035FB4020ADF800001D
:100FC00003208DF8020004208DF803006946ED48E7
:100FD00002F028FB8020ADF8000003208DF802000D
:100FE00004208DF803006946E64802F01BFB202030
:100FF000ADF8000003208DF8020010208DF80300EA
:101000006946E14802F00EFB4020ADF800000320E5
:101010008DF8020010208DF803006946DA4802F0CE
:1010200001FB08BD10B50446FF2C08D12021D6488D
:1010300002F0A7FB4021D44802F0A3FB13E044B91F
:101040002021D14802F09DFB4021CF4802F097FBC0
:1010500009E0012C07D12021CB4802F090FB402170
:10106000C94802F08EFB10BD10B5FF20FFF7DAFF74
:101070000120C64908700020C5490870C54908808C
:10108000C5490870C5490870FFF778FF10BD10B555
:10109000BC4802F063FBC043C0F3031010BD10B5A1
:1010A000FFF7F5FF00F00F0030B1BA480088401C90
:1010B000B8490880012010BD0020FCE72DE9F0416F
:1010C0004FF0000800240AE02046FFF7ABFFFFF7CF
:1010D000E6FF10B14FF0010801E0601CC4B2022C21
:1010E00002DAB8F1000FEFD0FFF7D1FF0646012773
:1010F0000025A84609E006EA070010B14FF00108F4
:1011000003E0681CC5B27806070E042D02DAB8F1B8
:10111000000FF0D005EB8400C0B2BDE8F0819C491F
:1011200009780A2913DA9A490978491C984A1170F2
:1011300099490A780978491C974B1970984988543D
:10114000194609780A2902DB00211A4611707047F6
:101150008F490978002901DD012100E000210846BE
:1011600070478B480078002815DD89480078401EBC
:10117000874A10708A48894A1278815C87480078CB
:10118000401C864A1070104600780A2801DB0020B7
:10119000107008467047FF20FCE710B5FFF7D8FF36
:1011A00000287DD0FFF7DDFF07282CD2DFE800F014
:1011B000042C42678EB6B70014207A4908607A483A
:1011C0000078082809D07948007805281BDA774884
:1011D0000078401C7549087015E0754800780428AF
:1011E00011DA73480078401C71490870084600788D
:1011F000401E704948706E480078401E88704FF459
:10120000487000F00CFCAFE01420664908606648A6
:10121000007808280DD06848007880F00100664901
:1012200008700846007810B100F0B3F901E000F052
:10123000B6F999E014205B4908605B4800780828FB
:101240001CD05E48007880F001005C4908700846B8
:10125000007860B100205A4908705A49087000F0BF
:10126000B2F900F0A9F902205749087006E000F031
:10127000A3F900F0AFF900205349087074E014207E
:10128000484908604848007808281ED04D48007832
:1012900080F001004B4908700846007870B100E00A
:1012A00063E00020464908704449087000F07DF969
:1012B00000F089F903204449087006E000F07CF949
:1012C00000F088F90020404908704DE014203549AD
:1012D000086035480078082809D03448007801288B
:1012E0001BDD32480078401E3049087015E0304858
:1012F0000078012811DD2E480078401E2C49087026
:1013000008460078401E2B49487029480078401E46
:1013100088704FF4487000F082FB25E024E0142030
:10132000204908602048007808281CD0244800780C
:1013300080F00100224908700846007860B1002062
:101340001E4908701F49087000F02FF900F042F99B
:1013500001201D49087006E000F02EF900F03AF96E
:1013600000201949087000BF00BF10BD10B5074824
:10137000007801282AD0022832D0032847D0042838
:101380002DD15BE000080140000C0140610000200D
:10139000600000205E0000205C0000205D00002056
:1013A000A00000204C0000201400002015000020A8
:1013B0003600002027000020630000206500002088
:1013C000640000206600002069000020FFF767FE2F
:1013D00028B102204449087000204449088081E077
:1013E000FFF75DFE60B1FFF769FE04462046FFF798
:1013F00096FE0A203E49087003203B49087005E02C
:10140000FF20FFF70FFE0120374908706AE0FFF761
:1014100046FE78B136480078002804DD344800786C
:10142000401E334908703248007830B904202E49F4
:10143000087002E002202C49087053E0FFF72FFEED
:10144000002843D0FFF73AFE0446052C05D10120C1
:1014500028490870FFF7B0FC43E0032C01D10120BC
:1014600000E000202449098809B9012100E0002199
:1014700008402249098809B9012100E000210840FB
:1014800018B31F48007840B91E48007880F001006A
:101490001C49087001201A4908701A48007850B198
:1014A00008201949087000F087F800F093F8002030
:1014B0001649087015E000201349087000F07CF808
:1014C00000F088F80020114908700AE0002009495E
:1014D0000870FFF751FC02200349087000200849FA
:1014E000087000BF00BF10BD610000205E0000203A
:1014F00062000020500000207200002074000020D4
:10150000680000206700002014000020690000200F
:1015100008B50121042002F041FB4FF40060ADF852
:10152000000003208DF8020010208DF803006946AA
:101530004D4802F077F84FF400614B4802F021F972
:101540004FF48050ADF8000003208DF80200102009
:101550008DF803006946444802F064F84FF4805166
:10156000414802F00EF90121082002F017FB022089
:10157000ADF8000003208DF8020010208DF8030064
:1015800069463A4802F04EF80221384802F0F9F86C
:1015900008BD10B50221354802F0F1F810BD10B5B4
:1015A0000221324802F0EDF810BD10B54FF4006191
:1015B0002D4802F0E4F810BD10B54FF400612A4840
:1015C00002F0DFF810BD10B54FF48051264802F04C
:1015D000D6F810BD10B54FF48051234802F0D1F871
:1015E00010BD10B50446002C3AD0214800780128DF
:1015F00030DC1F48007880F001001D490870084663
:10160000007898B164201B490860012C02D1FFF7D3
:10161000CCFF28E0022C02D1FFF7D5FF23E0032CFA
:1016200021D1FFF7C2FFFFF7CEFF1CE06420114974
:101630000860012C02D1FFF7BFFF14E0022C02D199
:10164000FFF7C8FF0FE0032C0DD1FFF7B5FFFFF741
:10165000C1FF08E006480078401E0549087002E016
:1016600002200349087010BD00080140000C014031
:101670006A0000204C00002000B589B0012109203B
:1016800002F08CFA0121480602F095FA4FF48070BE
:10169000ADF8200048208DF8230008A9ED4801F09E
:1016A000C1FF4FF40070ADF8200018208DF8230022
:1016B00003208DF8220008A9E64801F0B3FF0121BC
:1016C0004FF4EA1002F07FF8E34801F029F905A889
:1016D00001F04AFA00208DF81A008DF81B008DF8F1
:1016E0001C008DF81D008DF81E008DF81F008DF870
:1016F00016008DF817000B208DF8180006208DF8C5
:1017000019001220ADF8140005A9D34801F021F901
:1017100001208DF811000020ADF80C00ADF8040098
:10172000ADF80600ADF80800ADF80A008DF80F001E
:101730008DF80E0001208DF8100001A801F093F93A
:1017400001220221C44801F08DFC14208DF8000014
:1017500001208DF8030000208DF801008DF80200B3
:10176000684600F04CFE09B000BDBC480078012876
:101770004DD10020B9490870B948007A0028F7D146
:10178000B7480068B0F5A06F42D10120B549087094
:101790000020B5490880B248007B088008460078E0
:1017A000000200B20880AE48407BB1F90010084347
:1017B000AD4908800020AD490880A948807B088099
:1017C000084600884FF6FF7101EA0020A74908800B
:1017D000A348C07B09880843A4490880A048407CEE
:1017E000A34908709E48C07AA24908609C48007CC2
:1017F000A14908709F48006800284FD003209F49E6
:1018000008709C48006840F040009A49086045E034
:1018100093480068B0F5C06F40D101209849087026
:101820000020984908808E48007B08800846007890
:10183000000200B208808A48407BB1F900100843DA
:10184000904908800020904908808548807B088066
:10185000084600884FF6FF7101EA00208A49088097
:101860007F48C07B09880843874908807C48407CC2
:10187000864908707A48C07A7E4908607848007CBA
:10188000834908707B48006840B103207B49087099
:101890007848006840F08000764908607047002072
:1018A000734909784910794A127801EB62006F494F
:1018B0000988E42907DA552805DD0121754A1170E8
:1018C0001421754A116070476B480078012803D1D4
:1018D00006206A49087006E06D480078012802D1A8
:1018E00007206649087070476348007810B90020E7
:1018F0006249087070476648007810B900205F4957
:101900000870704757480078012806D15C48007875
:10191000012802D1002059490870704751480078C9
:10192000012803D100205D49088010E05B48008851
:10193000401C5A49088008460088B0F57A7F06DBCB
:1019400004204E4908704FF47A70544908800020F2
:10195000444908704A480078012803D100205049C2
:10196000088010E04E480088401C4D490880084619
:101970000088B0F57A7F06DB0520404908704FF4F7
:101980007A704749088000203D4908707047374801
:101990000088B0F58B7F03DB0920424908703DE0E9
:1019A00032480088B0F5877F03DD08203D49087084
:1019B00034E02E480088B0F5847F03DB07203949E6
:1019C00008702BE029480088B0F5807F03DD0620F1
:1019D0003449087022E025480088F92803DD0520F5
:1019E000304908701AE021480088F22803DD0420FD
:1019F0002C49087012E01D480088EB2803DD032005
:101A0000284908700AE019480088E42803DD02200C
:101A10002449087002E0012022490870704770B51F
:101A200005460E462048056000201F49487208728E
:101A300008208872002405E0315D1B480B300155F9
:101A4000601CC4B2082CF7DB1749034801F0FAF810
:101A500070BD0000000C0140006400406C000020DC
:101A6000C000002034000020720000206E00002022
:101A700078000020300000207600002014000020B4
:101A80003500002074000020700000207900002044
:101A900077000020150000204C0000207A00002074
:101AA0007C00002016000020AC00002000B591B0A2
:101AB00001214FF4037002F071F80121084602F091
:101AC00060F80120ADF82C0000208DF82F000BA944
:101AD000FB4801F0A7FD0220ADF82C0000208DF896
:101AE0002F000BA9F64801F09DFD0120ADF82C0058
:101AF00000208DF82F000BA9F24801F093FDF24869
:101B000001F006FCF1480090F1480190002002909D
:101B10000320039000200490802005908000069010
:101B200080000790202008900002099000200A9071
:101B30006946E54801F08EFC0121E34801F0B5FC5F
:101B400000200C9001208DF834008DF835004FF402
:101B500060200E9000200F9003208DF840000CA90B
:101B6000DA484C3800F0DBFC072301220021D7487B
:101B70004C3800F06CFD072302220121D3484C3879
:101B800000F065FD072303220821D0484C3800F0FF
:101B90005EFD0121CD484C3800F0F8FC0121CB4816
:101BA0004C3800F0E8FCC9484C3800F006FD00BF96
:101BB000C6484C3800F006FD0028F9D1C3484C381F
:101BC00000F00AFD00BFC1484C3800F00AFD0028B3
:101BD000F9D10121BD484C3800F00DFD11B000BD18
:101BE0002DE9F04706460C4615462946304603F0D7
:101BF000ADFF804629464FF07E5004F0A5F881469F
:101C0000214603F0A3FF0746414603F0BFFD04460B
:101C10002046BDE8F0872DE9F04F99B0AD480F9010
:101C2000AD480E900D904FF080400C900B900A90B4
:101C3000A748006880B21790A548406880B2169007
:101C4000A348806880B2159015991798461ADDE967
:101C50001510441A304606EBD0714E10204604EBA6
:101C6000D0714C10B6F57A7F01DD4FF47A7616F517
:101C70007A7F00DA994EB4F57A7F01DD4FF47A74F9
:101C800014F57A7F00DA954C9548B0F900000028E9
:101C900004DA9348B0F90000404202E09048B0F9FD
:101CA0000000FA281ADA8F48B0F90000002804DA98
:101CB0008C48B0F90000404202E08A48B0F90000C8
:101CC000FA280BDA322E03DA16F1320F00DD002685
:101CD000322C03DA14F1320F00DD00248248007840
:101CE00038B926B91CB901207F49087001E00026E7
:101CF00000247E48007808B1002600247C48007843
:101D000003F0DCFE4FF08041059003F03FFD794980
:101D1000069003F0A9FD0890304603F0B7FE079047
:101D2000089903F013FF099003F094FE06467048EB
:101D3000007803F0C3FE4FF08041059003F026FDCC
:101D40006C49069003F090FD0890204603F09EFE3B
:101D50000790089903F0FAFE099003F07BFE044611
:101D6000304603F093FE059003F0E4FC624A634BB7
:101D7000CDE9060103F0F6FACDE9080103F0C2FA55
:101D800006B2002C11DA204603F080FE059003F025
:101D9000D1FC4FF033325A4BCDE9060103F0E2FAA1
:101DA000CDE9080103F0AEFA04465148007803F08B
:101DB00085FE019003F0BEFC00224FF08043CDE988
:101DC000020103F09FF800224E4BCDE9040103F01D
:101DD00041F900224C4BCDE9060103F0C3FACDE9ED
:101DE000080103F08FFA05B205EB450005B20A20A1
:101DF00095FBF0F00FFA80FB2846E91705EB91718F
:101E00008F103748B0F90000002804DA3448B0F9E0
:101E10000000404202E03248B0F90000584534DA90
:101E20003048B0F90000002804DA2E48B0F900006C
:101E3000404202E02B48B0F90000584525DA304610
:101E400003F024FE099031480168099803F04AFF25
:101E500008D24FF07E512D48006803F097FC2B49C3
:101E600008601EE0304603F011FE09902748016823
:101E7000099803F037FE14D24FF07E5123480068D2
:101E800003F062FF214908600BE0304603F0FEFDDD
:101E900009901E480F9A01680998FFF7A1FE1B4997
:101EA00008601A48006803F0D5FD06460C48B0F9F2
:101EB000000000282CDA0A48B0F9000040422AE06D
:101EC00000080140000C0140080002404C24014081
:101ED000D40000200AD7A33C8FC2753C18FCFFFF3A
:101EE00072000020740000208000002014000020F8
:101EF000150000200000E0409A9999999999C93FEE
:101F00003333E33F00001C4000408F40840000203A
:101F1000FE48B0F90000B8427CDAFD48B0F9000094
:101F2000002804DAFA48B0F90000404202E0F8481C
:101F3000B0F90000B842EFDA002C5BDD0021F54873
:101F4000006803F053FD07D1F2480C99006803F0D4
:101F50001DFCF0490860BCE10021EE48006803F078
:101F6000C1FE11D2204603F091FD0990E9480168B5
:101F7000099803F0B7FE07D2E6480C99006803F011
:101F800005FCE4490860A4E10021E248006803F090
:101F9000A9FE11D2204603F079FD0990DD480168C1
:101FA000099803F09FFD07D2DA480A99006803F008
:101FB000CBFED84908608CE10021D648006803F0C8
:101FC00091FE09D2204603F061FD0990D1480168D5
:101FD000099803F00BFDBED00021CE48006803F045
:101FE00081FDB8D2CB480A99006803F0CFFBC949FC
:101FF00008606EE1002C5CDA0021C648006803F03E
:10200000F5FC08D1C3480C99006803F09DFEC14956
:1020100008605EE175E00021BE48006803F062FDE3
:1020200011D2204603F032FD0990BA4801680998A0
:1020300003F058FE07D2B7480A99006803F0A6FBE0
:10204000B449086045E10021B248006803F04AFD48
:1020500011D2204603F01AFD0990AE480168099894
:1020600003F040FD07D2AB480C99006803F06CFE0A
:10207000A84908602DE10021A648006803F032FD60
:1020800009D2204603F002FD0990A2480168099890
:1020900003F0ACFC8FD000219E48006803F022FEC4
:1020A00089D29C480A99006803F04EFE994908605D
:1020B0000FE1002C9DD100219648006803F012FE2C
:1020C00007D294480A99006803F03EFE91490860DF
:1020D000FFE000218F48006803F004FD07D28D481F
:1020E0000A99006803F052FB8A490860F1E0204633
:1020F00003F0CCFC099087480168099803F076FC4E
:10210000E7E0002C5DDD00218248006803F06EFCF2
:1021100007D180480B99006803F038FB7D490860BF
:10212000D7E000217B48006803F0DCFD11D2204697
:1021300003F0ACFC099077480168099803F0D2FDE0
:1021400007D274480B99006803F020FB71490860BE
:10215000BFE000216F48006803F0C4FD12D22046A2
:1021600003F094FC09906B480168099803F0BAFCED
:1021700008D268480D9A01680020FFF731FD6549D3
:102180000860A6E000216348006803F0ABFD09D2B7
:10219000204603F07BFC09905E480168099803F033
:1021A00025FC0DD000215B48006803F09BFC07D2A2
:1021B00058480D9A01680020FFF712FD5549086044
:1021C00087E0002C5DDA00215248006803F00EFC25
:1021D00007D150480B99006803F0B6FD4D490860DF
:1021E00077E000214B48006803F07CFC12D22046C7
:1021F00003F04CFC099047480168099803F072FD10
:1022000008D244480D9A01680020FFF7E9FC4149D3
:1022100008605EE000213F48006803F063FC11D2D3
:10222000204603F033FC09903A480168099803F00E
:1022300059FC07D237480B99006803F085FD3549F2
:10224000086046E000213348006803F04BFC09D2E7
:10225000204603F01BFC09902E480168099803F002
:10226000C5FB36D000212B48006803F03BFD30D27F
:1022700028480D9A01680020FFF7B2FC2549086044
:1022800027E034BB00212348006803F02BFD08D26F
:1022900020480D9A01680020FFF7A2FC1D49086044
:1022A00017E000211B48006803F01CFC08D2194805
:1022B0000D9A01680020FFF793FC1649086008E0BA
:1022C000204603F0E3FB099012480168099803F0E7
:1022D0008DFB10480C99006803F004FC0CD20C989C
:1022E00080F0004009900B480168099803F0FAFB60
:1022F00002D20020074908600648006803F0AAFBE4
:102300000446704200B21490704205E07200002052
:10231000740000208800002000B2139021B21291B6
:10232000604201B211911299149808440FFA80F892
:102330001199139808440FFA80F9A84500DDA846C2
:102340006842804502DA68420FFA80F8A94500DD4C
:10235000A9466842814502DA68420FFA80F9404690
:1023600003F094FB059003F0E5F91E4A1E4BCDE9FE
:10237000060102F0F7FFCDE9080102F0C3FF00B249
:102380001090484603F082FB059003F0D3F9154AFC
:10239000154BCDE9060102F0E5FFCDE9080102F099
:1023A000B1FF0FFA80FA1098404200B2109000BFBF
:1023B0004FEA1A200D49087081F801A01098000A10
:1023C0000B4908701098487008494FF44070FFF7A7
:1023D00026FB07494FF44470FFF721FB19B0BDE815
:1023E000F08F00009A99999999990540170000205B
:1023F0001F00002031490143314A1160704770B518
:10240000002100230F22C47804B32D4C246804F467
:10241000E064C4F5E064210AC1F10403CA404478D1
:1024200004FA03F18478144021430901254C06780D
:10243000A155047804F01F050124AC4005786D1106
:10244000AD0005F1E025C5F8004109E0047804F08D
:102450001F050124AC401C4D0678761145F8264036
:1024600070BD1A4A0A400243154B1B1F1A60704781
:1024700039B1134A121D12680243114B1B1D1A6019
:1024800006E00F4A121D126882430D4B1B1D1A6095
:102490007047042808D14FF0E021096941F0040198
:1024A0004FF0E022116107E04FF0E021096921F0CF
:1024B00004014FF0E0221161704700000000FA05AE
:1024C0000CED00E000E400E080E100E080FFFF1F91
:1024D00010B50446FA48844208D10121401501F0A4
:1024E00077FB0021601501F073FB17E0F54884428B
:1024F00008D10121001501F06BFB0021201501F02E
:1025000067FB0BE0F048844208D10121C80301F0C9
:102510005FFB00214FF4004001F05AFB10BD30B5C5
:102520000246002000235068E84C20400D790C68DA
:1025300044EA0524204350609068E54C2040D1E9EE
:1025400002542C434D7944EA450420439060D06AFC
:1025500020F470000C7C641EE4B2234340EA035074
:10256000D06230BD00210160017141718160C160A4
:1025700001210174704721B1826842F0010282603A
:1025800003E0826822F001028260704721B1826814
:1025900042F48072826003E0826822F4807282607A
:1025A000704710B50023CBB21AB144681C43446095
:1025B00002E044689C43446010BD816841F008011A
:1025C00081607047014600208A6802F008020AB163
:1025D000012000E000207047816841F00401816023
:1025E0007047014600208A6802F004020AB1012007
:1025F00000E00020704721B1826842F4A0028260AE
:1026000003E0826822F4A002826070470146002045
:102610008A6802F480020AB1012000E000207047BD
:1026200010B50A4600210023416821F46041531E81
:1026300041EA4331416010BD21B1426842F4006279
:10264000426003E0426822F4006242607047F0B5E5
:1026500004460D4600200021092D11DDE068A5F19A
:102660000A0606EB4607072606FA07F18843A5F196
:102670000A0606EB460603FA06F10843E0600CE0A2
:10268000206905EB4507072606FA07F1884305EBA5
:10269000450603FA06F108432061072A0FDA606B4A
:1026A000561E06EB86071F2606FA07F18843561EBC
:1026B00006EB860605FA06F10843606322E00D2A60
:1026C0000FDA206BD61F06EB86071F2606FA07F1E6
:1026D0008843D61F06EB860605FA06F108432063F9
:1026E00010E0E06AA2F10D0606EB86071F2606FA47
:1026F00007F18843A2F10D0606EB860605FA06F1FE
:102700000843E062F0BD21B1826842F48012826029
:1027100003E0826822F48012826070470146C86C30
:1027200080B2704766484C300068704721B14268FB
:1027300042F48062426003E0426822F480624260B8
:10274000704721B1426842F48052426003E042681F
:1027500022F48052426070470A460021816821F4C9
:10276000E04111438160704721B1826842F4004228
:10277000826003E0826822F400428260704721B1E7
:10278000826842F40212826003E0826822F402123C
:1027900082607047014600208A6802F400120AB184
:1027A000012000E000207047F0B5044615460020E7
:1027B00000220026092911DDE068A1F10A0707EBD4
:1027C000470C072707FA0CF29043A1F10A0707EB21
:1027D000470703FA07F21043E0600CE0206901EBC1
:1027E000410C072707FA0CF2904301EB410703FA6B
:1027F00007F210432061A06BC0F30156EF1C06F1F5
:10280000010CA7EB0C0707EB870C1F2707FA0CF24C
:102810009043EF1C06F1010CA7EB0C0707EB8707B1
:1028200001FA07F21043A063F0BD10B50A4600217B
:102830000023816B21F44011531E41EA035181634F
:1028400010BD08B5002300930090009B0B4400933B
:10285000009B1A6008BD08B5024600200090009257
:1028600001F12800009B184400900098006880B295
:1028700008BD0A4600214168164B194011434160CA
:1028800070474162826270470A460021416821F028
:102890001F0111434160704740B10949083109687F
:1028A00041F40001064A0832116007E0044908318A
:1028B000096821F40001024A0832116070470000E3
:1028C0000024014000280140003C0140FFFEF0FFD1
:1028D000FDF7F1FFFFFD3FFF0246002013680B40AC
:1028E0000BB1012000E000207047CA43026070472E
:1028F00070B502460020002300240B125568CEB2AA
:1029000005EA060415681D4015B10CB1012000E070
:10291000002070BD00220A12D343036070470000FC
:1029200010B50446FE48844209D10121480601F051
:102930005CF900214FF0007001F057F908E0012127
:10294000880601F052F900214FF0806001F04DF946
:1029500010BD30B5024600200023146824F00204A4
:102960001460146844F00104146000E05B1C5468B7
:1029700004F001041CB94FF6FF74A342F6D1546869
:1029800004F001040CB900206CE08C79012C04D116
:10299000146844F08004146003E0146824F0800498
:1029A0001460CC79012C04D1146844F04004146004
:1029B00003E0146824F0400414600C7A012C04D164
:1029C000146844F02004146003E0146824F0200428
:1029D00014604C7A012C04D1146844F01004146083
:1029E00003E0146824F0100414608C7A012C04D1E4
:1029F000146844F00804146003E0146824F0080428
:102A00001460CC7A012C04D1146844F004041460DE
:102A100003E0146824F0040414608C78A407CD78D3
:102A200044EA05640D7944EA05444D7944EA0554C5
:102A30000D886D1E2C43D461146824F001041460C9
:102A4000002300E05B1C546804F001041CB14FF645
:102A5000FF74A342F6D1546804F001040CB10020C5
:102A600000E0012030BD10B50021837A012202FA76
:102A700003F1AC4A126842F00102AA4B1A60A94A5B
:102A80001C3212688A43A74B1C331A60027BCAB9F6
:102A9000A44A0C3212688A43A24B0C331A60428853
:102AA000C38842EA03439F4A4032847A42F8343072
:102AB0000288838842EA03439A4A4032847A02EBCE
:102AC000C4025360027B012A19D1964A0C32126863
:102AD0000A43944B0C331A604288038842EA03434A
:102AE000904A4032847A42F83430C288838842EA7D
:102AF00003438C4A4032847A02EBC4025360C27AA8
:102B00003AB9884A121D12688A43864B1B1D1A6007
:102B100006E0844A121D12680A43824B1B1D1A608C
:102B2000028932B97F4A143212688A437D4B1433CA
:102B30001A600289012A06D17A4A143212680A43BD
:102B4000784B14331A60427B012A06D1754A1C3235
:102B500012680A43734B1C331A60724A126822F0DF
:102B60000102704B1A6010BD00218171C1710172A8
:102B700041728172C1728170C170032101710221A1
:102B800041710121018070476649096841F00101E6
:102B9000644A11601146096843F60E729143614A16
:102BA00011601146096841EA002111601146096867
:102BB00021F001011160704721B1026842F48032B6
:102BC000026003E0026822F4803202607047E1B1E3
:102BD000026842F0800202604FF4C272125842F45E
:102BE00080734FF4C27213504FF4CA72125842F4F9
:102BF00080734FF4CA7213504FF4D272125842F4D9
:102C000080734FF4D27213501BE0026822F08002EE
:102C100002604FF4C272125822F480734FF4C272F1
:102C200013504FF4CA72125822F480734FF4CA72D0
:102C300013504FF4D272125822F480734FF4D272B0
:102C40001350704710B502460020936803F080636C
:102C5000B3F1806F00D110E0936803F00063B3F12B
:102C6000006F01D1012008E0936803F08053B3F1B5
:102C7000805F01D1022000E00420042879D002F511
:102C8000C07303EB00131B6803F0010402F5C0736B
:102C900003EB00131C600B7A7BB94B7A0C8843EA78
:102CA000445302F5C07404EB00142468234302F576
:102CB000C07404EB0014236010E00B7A4C6843EA04
:102CC000C4034C7A234302F5C07404EB0014246857
:102CD000234302F5C07404EB001423608B7A03F0E5
:102CE0000F038B7202F5C07303EB00135B6823F0D4
:102CF0000F0402F5C07303EB00135C6002F5C073B0
:102D000003EB00135B688C7A234302F5C07404EB79
:102D1000001463608B7B1C064B7B44EA034403E096
:102D200000640040006600400B7B44EA0323CC7A39
:102D3000234302F5C07404EB0014A3608B7C1C06D3
:102D40004B7C44EA03440B7C44EA0323CC7B2343BF
:102D500002F5C07404EB0014E36002F5C07303EBEA
:102D600000131B6843F0010402F5C07303EB00136A
:102D70001C6010BD10B50246002321B1012907D007
:102D800002290FD109E09068F94C00EA04030BE036
:102D90009068F84C00EA040306E09068F64C00EAFC
:102DA000040301E0002300BF00BFF44C181BA34242
:102DB00016D007DC83B16FF08060184470B1022830
:102DC00018D111E0B0F5007F10D0ED4C204448B18F
:102DD000B0F5003F0ED10BE002230DE000230BE025
:102DE000002309E0002307E0012305E0012303E0BD
:102DF000012301E0002300BF00BFD8B210BD21B104
:102E0000012907D002290FD109E0826842F080022F
:102E100082600AE0826842F40042826005E08268D3
:102E200042F40002826000E000BF00BF704710B5AE
:102E300000F5D87303EB01131B6803F0040313724E
:102E4000137A53B900F5D87303EB01131B6840F2F2
:102E5000FF7404EA5353136009E000F5D87303EBE1
:102E600001131B686FF0604404EAD303536000F55C
:102E7000D87303EB01131B6803F00203537200F5D0
:102E8000D87303EB01135B6803F00F03937200F533
:102E9000D87303EB01135B681B0AD37400F5D87376
:102EA00003EB01139B68D37200F5D87303EB011396
:102EB0009B681C0A147300F5D87303EB01139B681D
:102EC0001C0C547300F5D87303EB01139B681B0EA5
:102ED000937300F5D87303EB0113DB68D37300F52C
:102EE000D87303EB0113DB681C0A147400F5D87364
:102EF00003EB0113DB681C0C547400F5D87303EB6F
:102F00000113DB681B0E937421B9C36843F02003DF
:102F1000C36003E0036943F02003036110BD21B9DE
:102F2000C26842F02002C26003E0026942F020025F
:102F3000026170470246002019B9D36803F003000C
:102F400006E0012903D1136903F0030000E000202B
:102F5000704710B502460B4600204FF6FF71BBB913
:102F6000146824F0020444F00104146000E0491ED7
:102F7000546804F00304012C01D00029F7D15468EF
:102F800004F00304012C01D0002032E0012030E0E5
:102F9000012B13D1146824F00304146000E0491ECF
:102FA000546804F003040CB10029F8D1546804F00B
:102FB00003040CB100201CE001201AE0022B17D101
:102FC000146824F0010444F00204146000E0491E77
:102FD000546804F00304022C01D00029F7D154688E
:102FE00004F00304022C01D0002002E0012000E0E4
:102FF000002010BD014600200A6822F0010242F0C4
:1030000002020A604A6802F00302022A00D101208B
:10301000704701464FF6FF7200200B6823F0020351
:103020000B6000E0521E4B6803F00203022B01D13B
:10303000002AF7D14B6803F00203022B00D00120D5
:103040007047014600208A6902F07000704701460F
:1030500000208A69100E7047014600208A69C2F379
:10306000074070471AB143690B43436102E043696B
:103070008B434361704710B50246002001F4700392
:1030800043B19369C1F3130423400BB101202DE038
:1030900000202BE001F0807343B15368C1F31304A7
:1030A00023400BB1012021E000201FE001F000636C
:1030B00043B19368C1F3130423400BB1012015E021
:1030C000002013E001F0007343B1D368C1F313048F
:1030D00023400BB1012009E0002007E01369C1F390
:1030E000130423400BB1012000E0002010BD00229A
:1030F000244B994202D10023836111E0C1F31302F2
:1031000001F000730BB1C2600AE001F080630BB103
:10311000026105E001F000630BB1826000E04260F3
:1031200070470246002002EA01030BB1012000E0D3
:103130000020704770B504460D460026606928409F
:10314000002872D0B5F5807F69D01DDC082D42D0F3
:1031500006DC012D2DD0022D31D0042D7FD134E09D
:10316000102D3ED0202D42D0402D78D145E00000DA
:103170000300000400030008000003100001000821
:103180000001FFF77000F030B5F5004F61D009DCA9
:10319000B5F5007F4AD0B5F5806F4DD0B5F5006F1D
:1031A0005DD150E0B5F5803F2DD0B5F5003F56D14B
:1031B0002FE0A0685549FFF7B4FF064651E0E068EC
:1031C0000321FFF7AEFF06464BE0E0680821FFF75A
:1031D000A8FF064645E0E0681021FFF7A2FF06467B
:1031E0003FE020690321FFF79CFF064639E0206994
:1031F0000821FFF796FF064633E020691021FFF70C
:1032000090FF06462DE060680821FFF78AFF06461A
:1032100027E060681021FFF784FF064621E0A069DF
:103220000121FFF77EFF06461BE01BE0A06902219B
:10323000FFF777FF064614E0A0690421FFF771FF4E
:1032400006460EE00BE0A0697021FFF76AFF064614
:1032500007E060680421FFF764FF064601E00026EE
:1032600000BF00E00026304670BDB1F5007F3AD0C7
:103270000FDC202928D006DC01291CD004291DD010
:10328000082940D11DE0402921D0B1F5807F3AD1F5
:1032900026E0B1F5004F31D006DCB1F5806F25D0C6
:1032A000B1F5006F2FD124E0B1F5803F12D0B1F518
:1032B000003F28D111E0154A826025E00822C26053
:1032C00022E01022C2601FE0082202611CE01022EE
:1032D000026119E00822426016E01022426013E009
:1032E0000422426010E0042242600DE004224260A9
:1032F0000AE0002282610422426005E0002282612D
:103300000422426000E000BF00BF704701010100DD
:1033100001684FF6FE7211400160002101604160BA
:103320008160C1608D49884208D18C49083949685B
:1033300041F00F01894A083A51608AE08749143107
:10334000884208D185490839496841F0F001834A2B
:10335000083A51607DE081492831884208D17F498F
:103360000839496841F470617C4A083A516070E05C
:103370007A493C31884208D178490839496841F492
:103380007041764A083A516063E07449503188428E
:1033900008D172490839496841F470216F4A083AE6
:1033A000516056E06D496431884208D16B49083953
:1033B000496841F47001694A083A516049E0674937
:1033C0007831884208D165490839496841F070610F
:1033D000624A083A51603CE06149884206D1011FC7
:1033E000096841F00F01021F116032E05C4914319D
:1033F000884208D15A49091F096841F0F001584A2A
:10340000121F116025E056492831884208D15449DD
:10341000091F096841F47061514A121F116018E0D8
:103420004F493C31884208D14D49091F096841F490
:1034300070414B4A121F11600BE0494950318842DC
:1034400007D14749091F096841F47021444A121FF6
:103450001160704710B50022026847F6F0739A4376
:103460000C6A8B6823430C6923434C6923438C69A2
:103470002343CC6923434C6A23438C6A23431A4376
:103480000260CB6843600B6883604B68C36010BD0B
:103490000021016041608160C16001614161816121
:1034A000C161016241628162704721B1026842F0EC
:1034B0000102026004E002684FF6FE731A400260E7
:1034C00070471AB103680B43036002E003688B4343
:1034D00003607047416070470146486880B270479A
:1034E00001460020002201F080531BB11C4B083B19
:1034F0001A6802E0194B083B1A6802EA01030BB193
:10350000012000E00020704700F0805119B11449FB
:10351000091F086002E011490839486070470146F8
:103520000020002201F080531BB10D4B083B1A68AC
:1035300002E00A4B083B1A6802EA01030BB10120C2
:1035400000E00020704700F0805119B10449091FC4
:10355000086002E0014908394860704708000240ED
:103560000804024010B50446CC48844208D1012129
:10357000042000F02DFB0021042000F029FB46E090
:10358000C748844208D10121082000F021FB002116
:10359000082000F01DFB3AE0C248844208D1012116
:1035A000102000F015FB0021102000F011FB2EE090
:1035B000BD48844208D10121202000F009FB0021F0
:1035C000202000F005FB22E0B848844208D1012108
:1035D000402000F0FDFA0021402000F0F9FA16E04A
:1035E000B348844208D10121802000F0F1FA002183
:1035F000802000F0EDFA0AE0AE48844207D10121B4
:10360000801500F0E5FA0021A01500F0E1FA10BDE8
:1036100010B50121084600F0DBFA0021012000F07E
:10362000D7FA10BD2DE9F041024600250026002002
:1036300000230024002791F803C00CF00F0591F837
:1036400003C00CF0100CBCF1000F03D091F802C0C5
:103650004CEA050591F800C0BCF1000F31D01468A8
:1036600000202BE04FF0010C0CFA00F3B1F800C081
:103670000CEA03069E4220D183004FF00F0C0CFA97
:1036800003F7BC4305FA03FC4CEA040491F803C0B9
:10369000BCF1280F06D14FF0010C0CFA00FCC2F867
:1036A00014C00AE091F803C0BCF1480F05D14FF0F7
:1036B000010C0CFA00FCC2F810C0401C0828D1D341
:1036C0001460B1F800C0BCF1FF0F34DD5468002075
:1036D0002EE000F1080C4FF0010808FA0CF3B1F8E5
:1036E00000C00CEA03069E4221D183004FF00F0C6C
:1036F0000CFA03F7BC4305FA03FC4CEA040491F806
:1037000003C0BCF1280F05D100F1080C08FA0CF831
:10371000C2F8148091F803C0BCF1480F07D100F142
:10372000080C4FF0010808FA0CF8C2F81080401C91
:103730000828CED35460BDE8F0814FF6FF710180B8
:10374000022181700421C1707047024600209368F5
:103750000B400BB1012000E0002070470146886853
:1037600080B2704702460020D3680B400BB10120A5
:1037700000E0002070470146C86880B270470161D0
:103780007047416170470AB1016100E041617047D3
:10379000C16070474FF480320A4382618161826167
:1037A00082698269704702460020434B18684FF6D1
:1037B0008073184040EA021008433F4B186070477E
:1037C0003E49C8617047F0B50A4600230024002135
:1037D000002500F00046B6F1004F02D1364EF169E7
:1037E00001E0354E7168C0F3034583B200F4401622
:1037F000B6F5401F08D121F070612F4E766826F093
:1038000070662D4F7E6012E000F48016B6F5801FC2
:1038100006D1032606FA05F4A14341F0706106E0E3
:10382000460D360103FA06F6B14341F0706122B14C
:10383000460D360103FA06F6314300F00046B6F1B4
:10384000004F02D11C4EF16101E01B4E7160F0BDD2
:1038500030B500228B071C0F0F2303FA04F2164B1E
:1038600008338C1053F824309343134C08348D10D4
:1038700044F8253023468C1053F824308C07240F4D
:1038800000FA04F423430C4C08348D1044F825301E
:1038900030BD0A49DC310860704700000008014073
:1038A000000C0140001001400014014000180140CC
:1038B000001C0140002001400000014000002042A7
:1038C000DF48006840F00100DD49086008464068B4
:1038D000DC490840DA49486008460068DA4908408F
:1038E000D74908600846006820F480200860084630
:1038F000406820F4FE0048604FF41F008860704765
:10390000CF49096821F48031CD4A11601146096818
:1039100021F480211160B0F5803F03D0B0F5802FF5
:103920000ED106E0C649096841F48031C44A1160ED
:1039300007E0C349096841F4A021C14A116000E0D1
:1039400000BF00BF704710B50146002200230020D1
:103950004A11012A02D1BA4C236806E0022A02D198
:10396000B74C236A01E0B64C636A01F01F020124E0
:1039700094401C400CB1012000E0002010BD38B57F
:10398000002000900024002500BF3120FFF7DBFF5E
:1039900005460098401C00900098B0F5A06F01D03B
:1039A000002DF2D03120FFF7CEFF08B1012400E056
:1039B0000024204638BD01460020A14A106820F0AE
:1039C000F80040EAC10010607047A04908607047E5
:1039D000024600209A4B586820F47C1042EA01030A
:1039E0001843974B586070479849086670470146DE
:1039F0000020934A506820F003000843506070474D
:103A00008F48406800F00C007047014600208C4A47
:103A1000506820F0F00008435060704701460020D5
:103A2000874A506820F4E0600843506070470146C0
:103A30000020834A506820F4605040EAC100506082
:103A4000704729B17E4A527A02437D4B5A7204E094
:103A50007B4A527A82437A4B5A7270477B49D831FB
:103A60000860704701460020754A506820F44040C5
:103A70000843506070470021714A20321170704A2B
:103A800082F82010012802D004280AD104E0012184
:103A90006B4A2032117005E00521694A203211700D
:103AA00000E000BF00BF7047694908607047644983
:103AB000096A0143624A11627047654944390860E6
:103AC000704730B500210022002400235C4D6D6852
:103AD00005F00C0121B1042905D0082923D105E006
:103AE0005C4D056022E05B4D05601FE0544D6D6844
:103AF00005F47012524D6D6805F48034022505EB13
:103B000092421CB9544D554305600BE04C4D6D6815
:103B100005F400351DB1504D5543056002E04D4D93
:103B20005543056002E04B4D056000BF00BF444DAA
:103B30006D6805F0F0010909484D6B5C0568DD40D2
:103B400045603F4D6D6805F4E061090A434D6B5CCB
:103B50004568DD4085603A4D6D6805F46051C90ADD
:103B60003E4D6B5C4568DD40C560354D6D6805F4C4
:103B70004041890B3A4D6B5CC568B5FBF3F50561B7
:103B800030BD29B12E4A526902432D4B5A6104E0DF
:103B90002B4A526982432A4B5A61704729B1284AFD
:103BA00092690243264B9A6104E0254A9269824356
:103BB000234B9A61704729B1214AD2690243204BB5
:103BC000DA6104E01E4AD26982431D4BDA61704714
:103BD00029B11B4AD2680243194BDA6004E0184A43
:103BE000D2688243164BDA60704729B1144A1269D1
:103BF0000243134B1A6104E0114A12698243104BCD
:103C00001A61704712494039086070470F49C8640B
:103C100070470B49C87170470948406A40F080708E
:103C200007494862704701460020054A92680A40E9
:103C30000AB1012000E000207047014988727047F6
:103C4000001002400000FFF8FFFFF6FE00004242B5
:103C50008004424200127A0000093D008C000020DE
:103C60009C00002010B50446FE48844208D1012182
:103C7000C014FFF7ADFF0021E014FFF7A9FFC4E077
:103C8000B4F1804F08D101210846FFF7AEFF0021B3
:103C90000120FFF7AAFFB8E0F348844208D10121D0
:103CA0000220FFF7A2FF00210220FFF79EFFACE0F9
:103CB000EE48844208D101210420FFF796FF00213D
:103CC0000420FFF792FFA0E0E948844208D10121D7
:103CD0000820FFF78AFF00210820FFF786FF94E005
:103CE000E448844208D101211020FFF77EFF002123
:103CF0001020FFF77AFF88E0DF48844208D10121D5
:103D00002020FFF772FF00212020FFF76EFF7CE0EC
:103D1000DA48844208D101214014FFF759FF0021FD
:103D20006014FFF755FF70E0D548844209D10121A6
:103D3000C804FFF74DFF00214FF40020FFF748FFB4
:103D400063E0D048844209D101210805FFF740FF14
:103D500000214FF48010FFF73BFF56E0CA48844231
:103D600009D101214805FFF733FF00214FF400106E
:103D7000FFF72EFF49E0C548844208D101214020C9
:103D8000FFF733FF00214020FFF72FFF3DE0C04841
:103D9000844208D101218020FFF727FF00218020E5
:103DA000FFF723FF31E0BB48844208D10121801591
:103DB000FFF71BFF0021A015FFF717FF25E0B6480E
:103DC000844209D101210804FFF702FF00214FF4CA
:103DD0008030FFF7FDFE18E0B048844209D1012190
:103DE0004804FFF7F5FE00214FF40030FFF7F0FE26
:103DF0000BE0AB48844208D101218804FFF7E8FEBC
:103E000000214FF48020FFF7E3FE10BD002202885E
:103E1000944B98420ED0994B98420BD0B0F1804F02
:103E200008D0914B984205D0904B984202D0904BCD
:103E3000984204D14FF68F731A404B881A438D4B2A
:103E4000984207D08C4B984204D04FF6FF431A405B
:103E5000CB881A4302808B8883850B880385814B2E
:103E600098420BD0854B984208D08B4B984205D096
:103E70008A4B984202D08A4B984201D10B7A038632
:103E800001238382704770B5002400220023058C33
:103E90004FF6FE7635400584028C8388048B4FF6FE
:103EA0008F752C40B51E2C400D882C43751E2A4062
:103EB0000D892A434D882A436A4DA8420BD06F4D85
:103EC000A84208D0744DA84205D0744DA84202D033
:103ED000734DA84213D14FF6F7752A404D892A43F6
:103EE0004FF6FB752A408D882A434FF6FF652B401D
:103EF0004FF6FF552B408D892B43CD892B43838073
:103F00000483CD888586028470BD70B500240022AC
:103F10000023058C4FF6EF7635400584028C8388AC
:103F2000048B48F6FF752C404FF6FF452C400D885A
:103F30004FF6FF7606EA05252C434FF6DF752A403B
:103F40000D8906EA05152A434D8806EA05152A4318
:103F5000444DA84202D0494DA8421DD14FF67F756D
:103F60002A404D894FF6FF7606EA05152A434FF69B
:103F7000BF752A408D8806EA05152A434FF6FF359E
:103F80002B404FF2FF752B408D8906EA85052B43A8
:103F9000CD8906EA85052B4383800483CD88058778
:103FA000028470BD70B5002400220023058C4FF6FA
:103FB000FF6635400584028C8388848B4FF68F75AD
:103FC0002C404FF6FC752C400D882C434FF6FF55C6
:103FD0002A400D894FF6FF7606EA05252A434D88CB
:103FE00006EA05252A431F4DA84202D0234DA842C8
:103FF0001DD14FF2FF752A404D894FF6FF7606EA34
:1040000005252A434FF6FF352A408D8806EA052507
:104010002A434EF6FF752B404DF6FF752B408D89D8
:1040200006EA05152B43CD8906EA05152B43838047
:104030008483CD888587028470BD70B500220023FB
:104040000024058C4EF6FF7635400584038C848869
:10405000828B48F6FF752A404FF6FF452A400D88AF
:1040600020E00000002C0140000400400008004057
:10407000000C0040001000400014004000340140DB
:10408000004C014000500140005401400018004025
:10409000001C00400020004000400140004401405E
:1040A000004801404FF6FF7606EA05252A434DF603
:1040B000FF752B400D8906EA05352B434D8806EA2E
:1040C00005352B43FA4DA84202D0FA4DA84208D13B
:1040D0004BF6FF752C408D894FF6FF7606EA851565
:1040E0002C4384808283CD88A0F84050038470BD27
:1040F000828B4FF2FF331A408283828B4FF6FF731D
:1041000003EA01231A4382837047F0B50C46154633
:10411000002200210026078C4EF6FF7C07EA0C07E0
:104120000784828B018C4FF6FF7707EA043640F64E
:10413000FF473A404FF6FF7707EA05273A434FF625
:10414000FF7707EA03373A43D94FB8420ED0D94F29
:10415000B8420BD0B0F1804F08D0D74FB84205D04D
:10416000D64FB84202D0D64FB84206D14DF6FF77AF
:10417000394046F48057394305E047F6FF57394048
:1041800044F48057394382830184F0BD828B4FF61B
:10419000F3731A408283828B0A4382837047F0B59F
:1041A0000C461546002200210026078C4FF6FF6CB6
:1041B00007EA0C070784828B018C4FF6FF7707EA2A
:1041C00004264FF60C773A404FF6FF7707EA0317BD
:1041D0002F433A43B64FB8420ED0B64FB8420BD039
:1041E000B0F1804F08D0B44FB84205D0B34FB842B9
:1041F00002D0B34FB84206D14FF6FF57394046F4CC
:104200008077394305E04FF2FF57394044F4807717
:10421000394382830184F0BD028B4FF2FF331A4091
:104220000283028B4FF6FF7303EA01231A430283D2
:104230007047F0B50C461546002200210026078C79
:104240004FF6EF7C07EA0C070784028B018C4FF6D0
:10425000FF7707EA041640F6FF473A404FF6FF772C
:1042600007EA03373A434FF6FF7707EA05273A4351
:104270008F4FB8420ED08F4FB8420BD0B0F1804F65
:1042800008D08D4FB84205D08C4FB84202D08C4F29
:10429000B84206D14FF6DF77394046F01007394370
:1042A00005E04FF65F77394044F010073943028349
:1042B0000184F0BD028B4FF6F3731A400283028B28
:1042C0000A4302837047F0B50C46154600220021D0
:1042D000068C4FF6FE773E400684028B018C4FF62B
:1042E0000C7632407E1C06EA03162E433243704E93
:1042F000B0420ED06F4EB0420BD0B0F1804F08D01C
:104300006D4EB04205D06D4EB04202D06C4EB04200
:1043100006D14FF6FD76314044F00106314305E009
:104320004FF6F576314044F00106314302830184B3
:10433000F0BD70B505460C465D4885420ED05D481F
:1043400085420BD0B5F1804F08D05B48854205D03F
:104350005A48854202D05A48854200D100E000BF49
:10436000208850B92389A28861882846FFF7ABFFCF
:10437000E1882846FFF79EFF25E0208804280AD11F
:104380002389A28861882846FFF753FFE1882846E1
:10439000FFF742FF17E0208808280AD12389A28866
:1043A00061882846FFF7FBFEE1882846FFF7EEFE0E
:1043B00009E02389A28861882846FFF7A6FEE188E4
:1043C0002846FFF795FE70BD2DE9F04105460C46E5
:1043D00000260127608808B9022600E00026A08890
:1043E000012801D1022700E001272088A0B92389F4
:1043F000A28861882846FFF766FFE1882846FFF714
:1044000059FF23893A4631462846FFF712FFE188D3
:104410002846FFF701FF13E02389A2886188284618
:10442000FFF707FFE1882846FFF7F6FE23893A46A3
:1044300031462846FFF747FFE1882846FFF73AFF55
:10444000BDE8F0810A884B881A438B881A43CB88D1
:104450001A430B891A434B891A438B891A43A0F8D4
:10446000442070474FF6FF71818000210180C18098
:104470004180017270470021018041808180C180AC
:10448000018141818181C18170470021018041808A
:10449000012181800021C1800181704700210180BC
:1044A00041808180C180018141818181704700000C
:1044B000002C01400034014000040040000800408E
:1044C000000C004021B1028842F00102028004E0A9
:1044D00002884FF6FE731A400280704731B1B0F87F
:1044E000442042F40042A0F8442005E0B0F8442003
:1044F000C2F30E02A0F8442070471AB183890B431F
:10450000838102E083898B43838170478182704776
:1045100041EA0203A0F8483070471AB183890B437F
:10452000838102E083898B438381704701894FF641
:10453000F8721140018170470A46002101894FF647
:104540008F73194011430181704730B504460D4601
:1045500029462046FFF7F0FF208940F00700208120
:1045600030BD2DE9F04104460D4616461F46602D2C
:1045700006D13B46012231462046FFF75AFE05E0B0
:104580003B46012231462046FFF79DFE2946204644
:10459000FFF7D2FF208940F007002081BDE8F081BD
:1045A00030B50C4600210189C9B24FF6FF7505EA06
:1045B0000325154325432943018130BD2DE9F041F1
:1045C00005460E4617469846002443463A4631466D
:1045D0002846FFF7E5FF2C894FF6F870044044F0B9
:1045E00007044FF68F70044044F070042C81BDE83E
:1045F000F081F0B504460D4616461F463B4632464E
:1046000029462046FFF7CCFF208940F480402081D6
:10461000F0BD0185828270470A46002101884FF66D
:104620008F731940114301807047F0B50C46154651
:104630001E460021002200230189028B038C4FF6C5
:10464000F877394021434FF6FC473A4040F20117D2
:104650003A434FF6DD773B404FF6FF7707EA061700
:104660002F433B43018102830384F0BD0A460021AE
:10467000018B4FF68F7319401143018370470A462F
:104680000021018B48F6FF7319404FF6FF7303EAD0
:1046900002231943018370470A460021818B4FF69C
:1046A0008F7319401143818370470A460021818B23
:1046B00048F6FF7319404FF6FF7303EA02231943CC
:1046C0008183704721B1028842F08002028004E0B9
:1046D00002884FF67F731A400280704721B18288AA
:1046E00042F00402828004E082884FF6FB731A4095
:1046F0008280704721B1828842F00802828004E003
:1047000082884FF6F7731A408280704721B1828801
:1047100042F00102828004E082884FF6FE731A4064
:10472000828070470A460021018B4FF6F7731940CB
:104730001143018370470A460021018B4FF2FF733A
:1047400019404FF6FF7303EA0223194301837047B0
:104750000A460021818B4FF6F7731940114381837C
:1047600070470A460021818B4FF2FF7319404FF6C4
:10477000FF7303EA02231943818370470A4600212D
:10478000018B4FF6FB7319401143018370470A46B2
:104790000021018B4FF6FF3319404FF6FF7303EAF8
:1047A00002231943018370470A460021818B4FF68B
:1047B000FB7319401143818370470A460021818BA6
:1047C0004FF6FF3319404FF6FF7303EA02231943F4
:1047D000818370470A460021018B4FF67F73194091
:1047E0001143018370470A460021018BC1F30E017A
:1047F0004FF6FF7303EA02231943018370470A4609
:104800000021818B4FF67F731940114381837047DC
:104810000A460021818BC1F30E014FF6FF7303EAB4
:1048200002231943818370470A460021018C4FF609
:10483000FD7319401143018470470A460021018C21
:104840004FF6F77319401143018470470A4600215F
:10485000018C4FF6DF7319404FF6FF7303EA021322
:104860001943018470470A460021018C4FF67F737B
:1048700019404FF6FF7303EA02131943018470478E
:104880000A460021018C4FF6FF5319404FF6FF7383
:1048900003EA02231943018470470A460021018C70
:1048A0004FF2FF7319404FF6FF7303EA02231943D7
:1048B000018470470A460021018C4DF6FF731940B0
:1048C0004FF6FF7303EA023319430184704730B592
:1048D000002301248C40A3B2048C9C430484048CE8
:1048E00002FA01F5ADB22C43048430BD30B500238B
:1048F00004248C40A3B2048C9C430484048C02FAEC
:1049000001F5ADB22C43048430BD70B503460020E0
:1049100000241846183001258D40ACB21D8CA543EB
:104920001D8409B1082909D100EB6100056825F053
:10493000700505600568154305600EE00D1FC5F3A1
:104940004E052844056825F4E045056005684FF6E6
:10495000FF7606EA02263543056070BD21B1028864
:1049600042F00202028004E002884FF6FD731A4012
:104970000280704721B1028842F00402028004E004
:1049800002884FF6FB731A400280704721B182887B
:1049900042F08002828004E082884FF67F731A40E2
:1049A0008280704702884FF6F7731A4002800288AF
:1049B0000A430280704782884FF68F731A408280C4
:1049C00082880A438280704702894FF6F8731A4042
:1049D000028102890A430281704702894FF67F7380
:1049E0001A40028102890A4302817047818470471C
:1049F000818570478186704701877047818770473E
:104A0000A0F84010704702884FF6FF431A4002801A
:104A100002880A43028070470146888E704701462B
:104A2000088F70470146888F70470146B1F84000F3
:104A300070470146888C70470146088D70470246D2
:104A40000020138A0B400BB1012000E000207047CA
:104A5000CA430282704730B502460020002300247A
:104A6000158A05EA0103958905EA010413B10CB121
:104A7000012000E0002030BDCA43028270470000E0
:104A800010B50446FB48844209D101218803FFF791
:104A90009FF800214FF48040FFF79AF832E0F64883
:104AA000844209D101214804FFF79FF800214FF407
:104AB0000030FFF79AF825E0F048844209D101213F
:104AC0008804FFF792F800214FF48020FFF78DF85B
:104AD00018E0EB48844209D10121C804FFF785F8AA
:104AE00000214FF40020FFF780F80BE0E5488442F6
:104AF00008D101210805FFF778F800214FF4801054
:104B0000FFF773F810BD2DE9F04786B005460E4655
:104B10000024A24600BFA1460027B08900B100BF13
:104B20002F462C8A4CF6FF700440F08804432C82F8
:104B3000AC894EF6F3100440B0883189084371897E
:104B400008430443AC81AC8A4FF6FF400440B0896F
:104B50000443AC8201A8FEF7B4FFC648874202D1E5
:104B6000DDF810A001E0DDF80CA0A88900F40040F9
:104B700040B10AEBCA0000EB0A1031684900B0FBF3
:104B8000F1F807E00AEBCA0000EB0A10316889006F
:104B9000B0FBF1F86420B8FBF0F0040120096421B7
:104BA00001FB1089A88900F4004040B1322000EBDD
:104BB000C900B0FBF1F000F00700044308E0322028
:104BC00000EB09106421B0FBF1F000F00F0004438A
:104BD0002C8106B0BDE8F0874FF41651016000212A
:104BE0008180C18001810C21418100218181704738
:104BF00010B502460020108A4FF2FF0318400B88C0
:104C00004C8823438C882343CC8823431843108249
:104C100010BD0021018041808180C180704721B199
:104C2000828942F40052828104E082894DF6FF734A
:104C30001A4082817047F0B5034600240026002503
:104C4000002040F66A17B94200D100BF1846C1F3F0
:104C5000421401F01F06012707FA06F5012C01D1C5
:104C60000C3004E0022C01D1103000E014301AB1F5
:104C700007682F43076002E00768AF430760F0BD95
:104C80001AB1838A0B43838202E0838A8B43838237
:104C90007047028A4FF6F0731A400282028A0A4372
:104CA0000282704782894FF2FF731A4082818289A3
:104CB0000A438281704721B1828942F002028281D7
:104CC00004E082894FF6FD731A4082817047028AA0
:104CD0004FF6DF731A400282028A0A43028270474B
:104CE00021B1028A42F48042028204E0028A4BF639
:104CF000FF731A4002827047C1F308028280704736
:104D000001468888C0F308007047818941F001019D
:104D100081817047028BD2B20283028B42EA012268
:104D200002837047028B02F47F420283028B0A43A4
:104D30000283704721B1828A42F02002828204E01D
:104D4000828A4FF6DF731A408282704721B1828ACD
:104D500042F01002828204E0828A4FF6EF731A401A
:104D60008282704721B1828A42F00802828204E086
:104D7000828A4FF6F7731A408282704721B1828986
:104D800042F40042828103E08289C2F30E028281F2
:104D9000704721B1828A42F40062828204E0828AF2
:104DA0004FF2FF731A4082827047828A4FF6FB737C
:104DB0001A408282828A0A438282704721B1828AA3
:104DC00042F00202828204E0828A4FF6FD731A40AA
:104DD0008282704702460020B1F5007F00D100BFFB
:104DE00013880B400BB1012000E00020704701F454
:104DF0000072B2F5007F00D100BFCA430280704745
:104E000070B50246002400230025002040F66A16F3
:104E1000B14200D100BFC1F3421501F01F030126CA
:104E200006FA03F3012D02D19689334006E0022DE4
:104E300002D1168A334001E0968A33400C120126D3
:104E400006FA04F41688344013B10CB1012000E0D6
:104E5000002070BD10B50022002340F66A14A14264
:104E600000D100BF0A1201249440A3B2DC430480A5
:104E700010BD0000003801400044004000480040E0
:104E8000004C004000500040704770477047754626
:104E900000F02CF8AE4605006946534620F00700A6
:104EA000854618B020B5FBF77DF9BDE820404FF0EE
:104EB00000064FF000074FF000084FF0000B21F004
:104EC0000701AC46ACE8C009ACE8C009ACE8C009D1
:104ED000ACE8C0098D46704710B50446AFF30080BA
:104EE0002046BDE81040FBF748B900000048704775
:104EF000E000002001491820ABBEFEE726000200BA
:104F00007047000010B591EA030F48BF83F00043DB
:104F100000F12E83841A71EB030C05D2121943EBB6
:104F20000C03001B61EB0C01DFF824E14FEA115484
:104F3000A4EB135C1EEA430F18BF9EEA445F73D0D4
:104F400023EA0E03DCF1200E21EA045143F480131E
:104F500032D322FA0CFE10EB0E0023FA0CFE41EBCA
:104F60000E01CCF1200E03FA0EFE10EB0E0051F1F3
:104F70000001B1F5801FCCF1200E32D201EB0451BB
:104F800012FA0EF2BDE8104058BF7047401C38BFFF
:104F90005FEA420218BF7047002814BF20F00100EA
:104FA00041F100014FEA410313F5001F38BF70477C
:104FB000A1F1C04100F0CEBA012A43EB0302ACF1EB
:104FC000200CDCF11F0E32BF4FF0000E23FA0CF361
:104FD00010EB030041EB0451B4EB115FD0D0A1EB17
:104FE000045101F5801149085FEA300001EB0451DA
:104FF0000ED350F1000038BF12FA0EFE08D1BDE802
:105000001040C9E7401C38BF5FEA4202CAD1C3E77B
:10501000BDE810404FEA410313F5001F38BF704749
:10502000A1F1C04100F096BA9EEA445F08D011EAAF
:105030005E0FBDE8104004BF01F000410020704742
:10504000BDE8104070B500F037FA00BF64FBBE3E0B
:105050000000E0FF2DE9C04130B4DFF8A0C23CEA17
:10506000111418BF3CEA131400F0EC8081EA030528
:105070001CEA111444EAD57418BF1CEA131500F099
:10508000C780A4EB05044FF0004545EAC12145EA7D
:10509000C32341EA505143EA525304F17F749942C9
:1050A00004F500344FEAC0204FEAC22208BF904204
:1050B00000F09C804FEA13650FF24016765D4FEAD0
:1050C000134506FB05F7C7F1807706FB07F74FEAA4
:1050D000D737A7FB03687642C8F58038A7FB06CE12
:1050E00038BFA8F1010807FB08E64FF0000EA6FB49
:1050F000028CE6FB03CEDCF1000CCEF1004E38BF93
:10510000AEF1010EA6FB0C584FF000074FF0000562
:10511000E6FB0E87A1FB08C6A0FB07CE16EB0E062A
:1051200045F10005E1FB076515F1E04E7EBFA4F5F2
:1051300080345FEA46066D4116F1800745F10005AF
:105140004FEA17274FEA066647EA0567A6F1DE46EB
:10515000B6F1805F4FEA15251FD9384624F0010CBF
:1051600005EBC471BCF1FE6F01EB0C1102D8F0BC71
:10517000BDE8008124425CBF01F5801E9EEAC47F29
:1051800002D4F0BCBDE80081244238D4F0BCA1F1C7
:10519000C041BDE8004100F0DDB94FEAD22242EA49
:1051A00043524FEAD323A7FB02864FEAD02040EABE
:1051B000415007FB03661EEA0E0F4FEAD12105FBA3
:1051C000026658BFA6EB0056B6EB00564FEA520EE9
:1051D0004EEAC37E18EB0E0E56EB530EBDD518EB00
:1051E00002085E417F1C55F10005B6E74FF48015BB
:1051F0004FF000074FF000064FF00008ADE7F0BC9D
:105200004FF0000001F1C04101F00041BDE8008114
:1052100011EA0C1F0CEA131500D00CE013EA0C1F66
:1052200000F025804FF00000F0BC81EA030101F09E
:105230000041BDE80081F0BCBDE8004181EA030106
:1052400000F088B9F0BCBDE8004170B500F034F959
:10525000097EFC3E00F007B881EA03014FF0000030
:1052600001F00041704781EA030100F073B9F0BC1E
:10527000BDE800414FF0000021497047FFFDFBF9F8
:10528000F7F5F4F2F0EEEDEBE9E8E6E4E3E1E0DE79
:10529000DDDBDAD8D7D5D4D3D1D0CFCDCCCBCAC8EB
:1052A000C7C6C5C4C2C1C0BFBEBDBCBBBAB9B8B712
:1052B000B6B5B4B3B2B1B0AFAEADACABAAA9A8A805
:1052C000A7A6A5A4A3A3A2A1A09F9F9E9D9C9C9BD3
:1052D0009A9999989797969595949393929191907E
:1052E0008F8F8E8E8D8C8C8B8B8A8989888887870F
:1052F0008685858484838382828181800000FF0784
:105300000000F87F4FEA41034FEA5353A3F580634F
:10531000D3F11E03C8BFD3F1210C0CDD4FF00042C6
:1053200042EAC12242EA505232FA03FC8CEAE17CA2
:10533000ACEBE1707047102BC4BF0020704703F541
:10534000787CBCF1FF3F04D06FF0004282EA21007C
:10535000704770B500F0B0F8499224800020704783
:10536000F2E70000DFF848C170B51CEA111E1EBF4D
:105370001CEA13159EEA0C0F95EA0C0F00F06F80E3
:1053800081EA030423EA4C134EEAD47E21EA4C114D
:1053900041F4801143F48013AE44A1FB024CA0FB06
:1053A0000365AEF17F7E361955EB0C05A1FB034C6E
:1053B0004CF10003A0FB021C16EB0C06654153F1F7
:1053C0000003094218BF46F0010613F4007F0BD119
:1053D0004FEA03314FEA0530340341EA155140EA00
:1053E00016506FF003020AE04FEAC3214FEAC520CE
:1053F000F40241EA555140EA56506FF0020202EBC6
:105400002E4201EB025585EACE710AD05FEA440CC8
:1054100018BF24F0004450F1000041F1000120EADF
:10542000D47040F2FE7C624500D270BDA84214BF29
:105430004FF080444FF04044002E08BF0024BEF1DE
:10544000806FA8BFA1F1C041BDE8704080F28280AA
:105450004FF0000001F1C04101F0004170479EEAA9
:105460000C0F0CEA131518BF95EA0C0F06D04FF07D
:10547000000081EA030E0EF0004170BD00F01CF840
:105480008900013E00F007B800F009B84FEA430C6C
:105490005FEA5C5C08D081EA030100F05BB84FEA88
:1054A000410C5FEA5C5CF6D14FF0000001497047A7
:1054B0000000FF070000F87F0EF1020E2EF0030E31
:1054C0005EF8046B364205D4012A43EB030515F55B
:1054D000001F12D8012841EB010C1CF5001F0CD84D
:1054E0000ED14FEAD17C15F5001F0CEB4C0C0CF1E2
:1054F000020C08BF4CEBD37C04E04FF0080C01E039
:105500004FEAD37C0CEB4C0526FA05F606F00706AD
:10551000B6F1040C06D20EEB860CBDE870404CF0E0
:10552000010C6047DFE80CF0090B02024FF000416C
:105530004FF00000A1F5002170BD1946104601286A
:1055400051EB010418BFD4F5001484BF002001F012
:10555000004170BD0808A0F500114FEA3101704705
:1055600010B591EA030F48BF83F000433FF5D2AC7A
:10557000841A71EB030C07D212198CF0004C43EB28
:105580000C03001B61EB0C01DFF8A4E14FEA11549E
:10559000A4EB135C1EEA430F18BF9EEA445F00F0C1
:1055A000B08023EA6E03524221EA0451C3EB6E033A
:1055B00038BF5B1EDCF1200E25D322FA0CFE10EB67
:1055C0000E0043FA0CFE41EB0E01CCF1200E03FA63
:1055D0000EFE10EB0E0051F10001CCF1200E29D48B
:1055E00012FA0EF201EB0451BDE8104058BF7047AB
:1055F000401C1CBFB2F1004F704700280CBF491C73
:1056000020F00100704712EB020E43EB030218BFBB
:105610004FF0010E4EEA4202ACF1200CDCF11E0EFE
:1056200054D943FA0CFE10EB0E0051F1FF31CCF1CE
:105630001E0ED5D50EF1010E12FA0EFE404141EBC1
:10564000010101EB445C5FEA5C5C10D910EBDE7099
:1056500001EB045138BFBEF1004FBDE8104018BF48
:10566000704700280CBF491C20F00100704730D261
:105670004FEAD42C11F5001124F400641BD0B1FAC8
:1056800081F20B3AA41AA41ED2F12003914030FA01
:1056900003F31943904001EBCC71002C01EB045152
:1056A000BDE81040A8BF704701F1C0414FF00000B5
:1056B00001F000417047B0FA80F310FA03F100D115
:1056C00010BDE41A173C4805C90AE4E701EB045190
:1056D00010BD491001EB0451BDE810404FEA300005
:1056E00002E04FF0000170474A0008BF0042F8D0C6
:1056F000B2F5001F28BF704701F000414FF00000D5
:1057000070479EEA445F07D011EA5E0FBDE8104083
:1057100004BF002100207047BDE8104070B5FFF7BE
:10572000CBFE00BF40DFF63E83F0004110467047DD
:105730000000E0FF43004FEAD30C4FEA3C0C43402B
:105740001FBF40070CF1605113F0FE4F70471CF073
:10575000006F03D100200CF0004170470CF00043B3
:1057600043EA507010B540EACC0000F070FA00BF78
:10577000000000924FEA0001FFF7ECBE4FF000413D
:105780004FF00000A1F500217047000090EA010FE2
:1057900048BF81F0004100F1DE82421A3CBF801A0E
:1057A00089184FEAD0524FF07F4C1CEA410FA2EB10
:1057B000D15318BF9CEA026F00F03B804FF0004CC1
:1057C0004CEA00204CEA012121FA03FC10EB0C0CFE
:1057D0001ED202F1FF325FEA1C2040EBC25038BFFC
:1057E00070471CF07F0F4FEA400C18BFBCF17F4F91
:1057F00038BF7047C3F12003994008BF20F0010073
:10580000BCF17F4F38BF7047A0F1C04000F065BACF
:105810004FEA3C00000A40EBC25028BF1CF0FF0FCB
:105820004FEA400CE6D018BFBCF17F4F38BF70473D
:10583000EAE79CEA026F05D010EA5C0F08BF00F0AF
:105840000040704710B500F002FA00BF64FBBE3E96
:10585000401058BFC0F14040491058BFC1F140410D
:105860008142EFF3008070474FF47F0C1CEAD012A6
:105870001EBF1CEAD11392EA0C0F93EA0C0F00F042
:10588000858090EA010F48BF42F4807240F4000C1A
:1058900041F400002CF07F4120F07F4000B58142B0
:1058A000A2EB03020FF2081CACEB504EC0F100005B
:1058B0009EF800E04FEA4E0E00FB0EFC38BF490098
:1058C0004FEA2C1C02F5FA020CFB0EF34FEACE1E37
:1058D0004FEA112C4FEAC1210EEB635E42EB2242EC
:1058E0000EFB0CFC4FEA1C5300FB03114FEA112C7A
:1058F0004FEA01310EFB0CFC4FEADC4C00FB0C11B3
:10590000C14228BF09184CEB03335DF804EB10EBE0
:10591000410143EBC250B2F57C0F38BF704729D527
:1059200012F0F00F1CBF00F1C04000F000407047C3
:10593000008182838485868788898B8C8D8E8F9168
:105940009293959697999A9C9D9FA0A2A3A5A7A88C
:10595000AAACAEB0B2B3B5B7B9BCBEC0C2C5C7C9B8
:10596000CCCED1D4D7D9DCDFE2E6E9ECF0F3F7FA1C
:10597000FE0000004FEA400C0CF1807CBCF17E4F31
:1059800028BF7047B0F1C04000F0A7B990EA010FFE
:105990000CEAD11348BF42F48072624538BF6345B8
:1059A00007D213F47F0F16D080EA010000F0004008
:1059B000704710B500F04BF9097EFC3E00F005B8C9
:1059C00080EA010000F00040704780EA010000F02A
:1059D000004000F082B912F47F0F04BF0248704704
:1059E00080EA010000F079B90000C07F50EA010CA4
:1059F00000F113801CF5000F58BFBCF5000F01D457
:105A00008842704707D710F5000F58BF11F5000FF7
:105A100015D488427047894270471CF5000F04D5A1
:105A2000BCF5000FF7D5814270474FF0807C1CEB2E
:105A3000400F38BF1CEB410F01D28142704710B5B7
:105A400000F005F9922449004FF000504FF08051CA
:105A5000FFF7FEBE41000B0ED3F19E0208D950F4B1
:105A600000034FEA032323FA02F048BF4042704785
:105A700010B500F0ECF800BF499224800020704778
:105A80006FF0004282EA20007047000010F00041F1
:105A900048BF4042B0FA80F310FA03F2C3F19D030D
:105AA0000BD051EAC35101EB1220530638BF7047A7
:105AB00000F1010008BF20F001007047B0FA80F348
:105AC00010FA03F2C3F19D030AD0D90501EB1220AD
:105AD000530638BF704700F1010008BF20F00100F5
